:020000001528C1
:0C00060083120D088A000C08820008001C
:1000120003208A110A128000840A8C0A03198D0AAD
:08002200C003031D09280800BA
:10002A0083128501860183168501F03086006330CC
:10003A008E0000308F0083120614061E2828013015
:10004A008E0000308F00861E2E2804308E0000306D
:10005A008F00061F342807308E0000308F000610EC
:10006A008614061E3C2802308E0000308F00861E41
:10007A00422805308E0000308F00061F48280830BD
:10008A008E0000308F00861F4C288E018F0186104B
:10009A000615061E542803308E0000308F00861E77
:1000AA005A2806308E0000308F00061F602809305B
:1000BA008E0000308F00061100300F06031D6728DE
:1000CA0063300E0603196B280E0885001C286C285D
:02400E00FA3F77
:00000001FF
